:020000040800F2
:100000000000022019220008990900089B09000835
:100010009D0900089F090008A109000800000000D0
:10002000000000000000000000000000A30900081C
:10003000A509000800000000A7090008A909000898
:100040006922000869220008692200086922000864
:100050006922000869220008692200086922000854
:100060006922000869220008692200086922000844
:100070006922000869220008692200086922000834
:10008000692200086922000869220008B1090008F5
:10009000C1090008692200086922000869220008D5
:1000A0006922000869220008692200086922000804
:1000B00069220008692200086922000869220008F4
:1000C00069220008692200086922000869220008E4
:1000D00069220008692200086922000869220008D4
:1000E00069220008692200086922000869220008C4
:1000F00069220008692200086922000869220008B4
:1001000069220008692200086922000869220008A3
:100110006922000869220008692200086922000893
:100120006922000869220008692200086922000883
:10013000692200080000000000000000D10900084A
:10014000E109000869220008692200086922000804
:100150006922000869220008692200086922000853
:100160006922000869220008692200086922000843
:1001700069220008692200086922000800000000C6
:1001800000000000692200080000000000000000DC
:100190006922000800000000000000006922000839
:1001A00000000000000000000000000069220008BC
:1001B00069220008692200086922000869220008F3
:0401C00069220008A8
:1001C4000348044B834202D0034B03B118477047E2
:1001D4000C0000200C000020000000000548064927
:1001E4000B1AD90F01EBA301491002D0034B03B141
:1001F400184770470C0000200C000020000000008D
:1002040010B5064C237843B9FFF7DAFF044B13B15A
:100214000448AFF300800123237010BD0C000020BC
:10022400000000006C22000808B5044B1BB104490F
:100234000448AFF30080BDE80840CFE700000000A9
:10024400100000206C22000870B50D4E0D4D761B79
:10025400B61006D0002455F8043B01349847A64252
:10026400F9D1094E094D761B01F0FEFFB61006D0F8
:10027400002455F8043B01349847A642F9D170BDD7
:10028400A4220008A4220008A8220008A42200082E
:10029400830730B548D0541E002A3FD0CAB2034663
:1002A40001E0013C3AD303F8012B9D07F9D1032C5B
:1002B4002DD9CDB245EA05250F2C45EA054536D999
:1002C400A4F1100222F00F0C03F1200EE6444FEAD1
:1002D400121C03F1100242E9045542E9025510329E
:1002E4007245F8D10CF1010214F00C0F03EB021269
:1002F40004F00F0C13D0ACF1040323F00303043314
:10030400134442F8045B9342FBD10CF003042CB178
:10031400CAB21C4403F8012B9C42FBD130BD644695
:100324001346002CF4D1F9E703461446BFE71A46F6
:10033400A446E0E753B94AB9002908BF00281CBF06
:100344004FF0FF314FF0FF3000F074B9ADF1080CFD
:100354006DE904CE00F006F8DDF804E0DDE90223DF
:1003640004B070472DE9F047089D04468E46002BE3
:100374004DD18A42944669D9B2FA82F252B101FA55
:1003840002F3C2F1200120FA01F10CFA02FC41EA65
:10039400030E94404FEA1C48210CBEFBF8F61FFAEA
:1003A4008CF708FB16E341EA034306FB07F1994285
:1003B4000AD91CEB030306F1FF3080F01F81994238
:1003C40040F21C81023E63445B1AA4B2B3FBF8F012
:1003D40008FB103344EA034400FB07F7A7420AD999
:1003E4001CEB040400F1FF3380F00A81A74240F2C1
:1003F40007816444023840EA0640E41B00261DB12C
:10040400D4400023C5E900433146BDE8F0878B4260
:1004140009D9002D00F0EF800026C5E9000130461F
:100424003146BDE8F087B3FA83F6002E4AD18B42F9
:1004340002D3824200F2F980841A61EB03030120A3
:100444009E46002DE0D0C5E9004EDDE702B9FFDE8F
:10045400B2FA82F2002A40F09280A1EB0C014FEA3A
:100464001C471FFA8CFE0126200CB1FBF7F307FB97
:10047400131140EA01410EFB03F0884208D91CEB3A
:10048400010103F1FF3802D2884200F2CB804346D7
:10049400091AA4B2B1FBF7F007FB101144EA0144B6
:1004A4000EFB00FEA64508D91CEB040400F1FF3145
:1004B40002D2A64500F2BB800846A4EB0E0440EA33
:1004C40003409CE7C6F12007B34022FA07FC4CEA3C
:1004D400030C20FA07F401FA06F31C43F9404FEA2F
:1004E4001C4900FA06F3B1FBF9F8200C1FFA8CFE44
:1004F40009FB181140EA014108FB0EF0884202FA98
:1005040006F20BD91CEB010108F1FF3A80F0888058
:10051400884240F28580A8F102086144091AA4B215
:10052400B1FBF9F009FB101144EA014100FB0EFE96
:100534008E4508D91CEB010100F1FF346CD28E45C5
:100544006AD90238614440EA0840A0FB0294A1EB56
:100554000E01A142C846A64656D353D05DB1B3EBB3
:10056400080261EB0E0101FA07F722FA06F3F140E3
:100574001F43C5E9007100263146BDE8F087C2F18A
:100584002003D8400CFA02FC21FA03F39140014302
:100594004FEA1C471FFA8CFEB3FBF7F007FB10363B
:1005A4000B0C43EA064300FB0EF69E4204FA02F4E7
:1005B40008D91CEB030300F1FF382FD29E422DD93A
:1005C400023863449B1B89B2B3FBF7F607FB16336F
:1005D40041EA034106FB0EF38B4208D91CEB0101EF
:1005E40006F1FF3816D28B4214D9023E6144C91A6F
:1005F40046EA004638E72E46284605E70646E3E67F
:100604001846F8E64B45A9D2B9EB020864EB0C0E88
:100614000138A3E74646EAE7204694E74046D1E797
:10062400D0467BE7023B614432E7304609E7644445
:10063400023842E7704700BF84B000220092154B95
:10064400196B41F004011963196B01F00401009165
:1006540000990192196B41F080011963196B01F043
:100664008001019101990292196B41F00101196312
:10067400196B01F001010291029903921A6B42F085
:1006840002021A631B6B03F002030393039B04B07F
:10069400704700BF0038024072B6FEE708B50E4846
:1006A4000E4B0360032343604FF0804383600023B9
:1006B400C3604FF4202202614FF4001242610376BA
:1006C400437683760122C2760377437700F05AFBA0
:1006D40000B908BDFFF7E0FF2800002000640040D7
:1006E40008B50E480E4B0360032343604FF080436C
:1006F40083600023C3604FF4202202614FF4001290
:1007040042610376437683760122C2760377437788
:1007140000F038FB00B908BDFFF7BEFF5000002011
:100724000068004010B592B000241094119409940C
:100734000A940B940C940D940E940F942022214649
:1007440001A8FFF7A5FD2548254B0360446084609C
:100754004FF6FF73C36004614461846101F056FB8A
:10076400002831D100231093119310A91B4801F0E4
:100774001FFC00282AD16023099300230A930B93BA
:100784000C930D930E930F93042209A9134801F0BF
:10079400A1FBE8B9082209A9104801F09BFBC8B9DC
:1007A4000023019302930393049305934FF400529F
:1007B4000692089301A9094801F040FC60B9074872
:1007C40000F0EAF912B010BDFFF766FFFFF764FF0F
:1007D400FFF762FFFFF760FFFFF75EFF780000207E
:1007E4000000014008B50A480A4B03604FF4E133A6
:1007F400436000238360C36003610C224261836110
:10080400C36101F0CDFC00B908BDFFF745FF00BF8F
:1008140098010020004C004008B50A480A4B0360C8
:100824004FF4E133436000238360C36003610C220F
:1008340042618361C36101F0B3FC00B908BDFFF7F5
:100844002BFF00BFC00000200010014008B50A487B
:100854000A4B03604FF4E133436000238360C360B9
:1008640003610C2242618361C36101F099FC00B908
:1008740008BDFFF711FF00BF08010020004400403D
:1008840008B50A480A4B03604FF4E1334360002380
:100894008360C36003610C2242618361C36101F020
:1008A4007FFC00B908BDFFF7F7FE00BF5001002030
:1008B4000048004000B595B03422002107A8FFF796
:1008C400E7FC002302930393049305930693009398
:1008D400234A116C41F080511164126C02F0805271
:1008E4000092009A01931F4B1A6842F440421A6026
:1008F4001B6803F440430193019B012307934FF4C6
:100904008033089302230D934FF480020E92062243
:100914000F92B4221092119307221292139307A8F4
:1009240000F06EFDB0B901F079F8A8B90F23029375
:1009340002230393002304934FF4A05305934FF42D
:1009440080530693052102A800F0F4FB30B915B0DA
:100954005DF804FBFFF7A0FEFFF79EFEFFF79CFE89
:10096400003802400070004008B501F027F9FFF795
:10097400A1FFFFF761FEFFF791FEFFF7B1FEFFF75E
:10098400D1FEFFF72FFFFFF747FFFFF75FFFFFF7EA
:1009940077FFFEE7FEE7FEE7FEE7FEE7FEE77047C8
:1009A4007047704708B501F023F908BD08B502483F
:1009B40000F09BFA08BD00BF2800002008B50248DB
:1009C40000F093FA08BD00BF2800002008B50248D3
:1009D40000F08BFA08BD00BF5000002008B50248A3
:1009E40000F083FA08BD00BF5000002082B000214F
:1009F40000910B4B5A6C42F480425A645A6C02F4D4
:100A040080420092009A01911A6C42F080521A645A
:100A14001B6C03F080530193019B02B0704700BF2D
:100A24000038024010B58AB000230593069307935B
:100A3400089309930368474A934204D0464A934271
:100A44003ED00AB010BD454A136801331360012B30
:100A540029D000240194424B1A6B42F002021A631B
:100A64001B6B03F002030193019B4FF44073059346
:100A740002230693032308930923099305A93948FC
:100A840000F0E0FE22462146132001F017F813205F
:100A940001F04CF822462146142001F00FF81420EE
:100AA40001F044F8CDE7002300932D4B1A6C42F07B
:100AB40000721A641B6C03F000730093009BC8E778
:100AC40000230293264B1A6C42F080621A641B6C5A
:100AD40003F080630293029B204A1368013313607E
:100AE400012B29D0002404941D4B1A6B42F00202FE
:100AF4001A631B6B03F002030493049B4FF44053EB
:100B0400059302230693032308930923099305A954
:100B1400144800F097FE224621463F2000F0CEFF05
:100B24003F2001F003F822462146402000F0C6FF92
:100B3400402000F0FBFF84E700230393084B1A6C6A
:100B440042F000721A641B6C03F000730393039B5E
:100B5400C8E700BF0064004000680040E0010020D6
:100B640000380240000402400268094B9A4200D057
:100B7400704782B000230193064B5A6C42F0010285
:100B84005A645B6C03F001030193019B02B070474C
:100B9400000001400038024000B587B000230193F3
:100BA400029303930493059302680F4B9A4202D075
:100BB40007B05DF804FB002300930C4B1A6B42F062
:100BC40002021A631B6B03F002030093009B4FF4B1
:100BD40040430193022302930123059301A904488E
:100BE40000F030FEE4E700BF00000140003802409E
:100BF40000040240F0B58FB0002309930A930B93CD
:100C04000C930D930368574A93420AD0564A934271
:100C140029D0564A93424AD0554A93426AD00FB0DB
:100C2400F0BD00210091534B1A6C42F400221A6467
:100C34001A6C02F400220092009A01911A6B42F09D
:100C440001021A631B6B03F001030193019B03234D
:100C5400099302220A920C9308230D9309A946488A
:100C640000F0F0FDDBE700210291424B5A6C42F0A8
:100C740010025A645A6C02F010020292029A039112
:100C84001A6B42F001021A631B6B03F00103039316
:100C9400039B4FF4C063099302230A9303230C9329
:100CA40007230D9309A9344800F0CCFDB7E70021D0
:100CB4000491304B1A6C42F400321A641A6C02F438
:100CC40000320492049A05911A6B42F001021A63ED
:100CD4001B6B03F001030593059B0C23099302236B
:100CE4000A9303230C9307230D9309A9224800F0C8
:100CF400A9FD94E7002406941E4B1A6C42F480224A
:100D04001A641A6C02F480220692069A07941A6BEB
:100D140042F004021A631A6B02F004020792079A63
:100D240008941A6B42F002021A631B6B03F002036D
:100D34000893089B2023099302270A9703260C96FD
:100D440007250D9509A90D4800F07CFD4FF480633B
:100D540009930A970B940C960D9509A9084800F07D
:100D640071FD5CE7004C004000100140004400406D
:100D740000480040003802400000024000080240E1
:100D840000040240002800F0A18038B5044690F821
:100D94002030D3B12268136843F00103136000F0DC
:100DA40033FF054623685A6812F0010F10D100F092
:100DB4002BFF401B0A28F5D9636A43F400336362AE
:100DC400052384F82030012038BDFFF72BFEE1E72E
:100DD4001A6822F002021A6000F016FF0546236822
:100DE4005A6812F0020F0DD000F00EFF401B0A28C3
:100DF400F5D9636A43F400336362052384F8203031
:100E04000120E1E7227E012A3DD01A6822F0800207
:100E14001A60637E012B3BD02268136823F04003E1
:100E24001360A37E012B39D02268136823F02003BA
:100E34001360E37E012B37D02268136843F010035C
:100E44001360237F012B35D02268136823F0080335
:100E54001360637F012B33D02268136823F00403EB
:100E64001360A368E268134322691343626913435E
:100E74006268013A21681343CB6100206062012358
:100E840084F82030A0E71A6842F080021A60C0E7B4
:100E94002268136843F040031360C2E722681368B2
:100EA40043F020031360C4E72268136823F010039F
:100EB4001360C6E72268136843F008031360C8E7A9
:100EC4002268136843F004031360CAE701207047E3
:100ED4007047704770477047704770477047704756
:100EE400704770477047704770472DE9F84F0546C3
:100EF40003685C69D3F804809F68D3F80CB0D3F816
:100F040010A0D3F8189014F001063BD017F0010696
:100F140016D001229A6017F0020F08D117F0040FBF
:100F24000CD117F0080606D04FF4805608E0FFF7FE
:100F3400CFFF002604E0FFF7CEFF01E04FF4006688
:100F440017F4807F0DD02B684FF480729A6017F4E9
:100F5400007F40F0868017F4806F00F0868046F4AE
:100F6400005617F4803F0DD02B684FF480329A60FE
:100F740017F4003F40F0838017F4802F00F0838043
:100F840046F4004614F0080F07D01BF0100F04D0ED
:100F940046F400762B681022DA6014F0040F02D0B5
:100FA4001BF0080F79D114F0020F04D02B68DB6812
:100FB40013F0030F78D114F0400F07D01AF0100F7C
:100FC40004D046F480662B6810221A6114F0200FB6
:100FD40002D01AF0080F6BD114F0100F04D02B6854
:100FE4001B6913F0030F6AD114F4003F02D018F008
:100FF400100F68D114F4803F02D018F0080F69D1A3
:1010040014F4004F7AD018F0040F74D014F4807FD5
:1010140004D019F0010F01D046F0010614F4007F4A
:1010240004D019F0020F01D046F0020614F4806FC8
:1010340004D019F0040F01D046F0040614F4006F34
:1010440059D019F0700956D0B9F1400F65D058D86D
:10105400B9F1200F5ED0B9F1300F42D146F020062D
:1010640044E02846FFF735FF7BE717F4006F02D012
:1010740046F4804675E72846FFF72EFF71E72846B9
:10108400FFF728FF7EE717F4002F02D046F48036DE
:1010940078E72846FFF721FF74E72B680822DA6017
:1010A4002846FFF71CFF7EE72846FFF717FF82E775
:1010B4002B6808221A612846FFF713FF8CE728469D
:1010C400FFF70EFF90E72B6810225A602846FFF7BF
:1010D40009FF8FE72B6808225A602846FFF703FFB1
:1010E4008EE7B9F1100F01D146F008062A6893691A
:1010F40023F0700393612B6804225A609EB9BDE803
:10110400F88FB9F1500F0BD0B9F1600FEED146F45E
:101114008076EBE746F01006E8E746F04006E5E7A0
:1011240046F08006E2E76B6A1E436E622846FFF7CC
:10113400DBFEE4E7002800F09B8070B50D46044612
:101144004F4B1B6803F00F038B4208D2CBB24C4ABF
:101154001370136803F00F038B4240F08B802368F5
:1011640013F0020F17D013F0040F04D0454A93680C
:1011740043F4E0539360236813F0080F04D0414A0A
:10118400936843F4604393603E4A936823F0F0030A
:10119400A1680B439360236813F0010F32D0636896
:1011A400012B21D09A1E012A25D9364A126812F041
:1011B400020F61D033498A6822F0030213438B6023
:1011C40000F022FD06462F4B9B6803F00C03626877
:1011D400B3EB820F16D000F017FD801B41F2883369
:1011E4009842F0D9032042E0264A126812F4003FE4
:1011F400E0D101203BE0234A126812F0007FD9D1EC
:10120400012034E01E4B1B6803F00F03AB4207D9E7
:10121400EAB21B4B1A701B6803F00F03AB422DD1CB
:10122400236813F0040F06D0164A936823F4E0539E
:10123400E1680B439360236813F0080F07D0114A49
:10124400936823F46043216943EAC103936000F087
:1012540047F80C4B9B68C3F303130B4AD35CD84089
:101264000A4B18600A4B186800F082FC002070BD1D
:10127400012070470120FAE70120F8E70120F6E792
:10128400003C02400038024084220008080000208C
:1012940004000020014B1868704700BF08000020BC
:1012A40008B5FFF7F7FF044B9B68C3F38223034A97
:1012B400D35CD84008BD00BF003802409422000827
:1012C40008B5FFF7E7FF044B9B68C3F34233034AB7
:1012D400D35CD84008BD00BF003802409422000807
:1012E40008B5444B9B6803F00C03082B07D00C2B68
:1012F40043D0042B01D0404808BD4048FCE73D4B97
:101304005A6802F03F025B6813F4800F12D0394B25
:101314005968C1F3881139480023A1FB0001FFF784
:1013240009F8344B5B68C3F3014301335B00B0FB42
:10133400F3F0E1E72F4B5968C1F3881C4FEA4C11D5
:10134400B1EB0C006EEB0E0E4FEA8E1343EA906382
:101354008101091A63EB0E03DB0043EA5173C900F0
:1013640011EB0C0C43F10003990200234FEA8C208B
:1013740041EA9C51FEF7DEFFD3E71E4B5A6802F0A8
:101384003F025B6813F4800F10D01A4B5968C1F305
:1013940088111A480023A1FB0001FEF7CBFF154B6F
:1013A4005B68C3F30273B0FBF3F0A5E7114B596814
:1013B400C1F3881C4FEA4C11B1EB0C006EEB0E0E1E
:1013C4004FEA8E1343EA90638101091A63EB0E031B
:1013D400DB0043EA5173C90011EB0C0C43F1000329
:1013E400990200234FEA8C2041EA9C51FEF7A2FFA8
:1013F400D5E700BF003802400024F400001BB7000A
:10140400002800F0018270B582B00446036813F02E
:10141400010F41D0994B9B6803F00C03042B32D08D
:10142400964B9B6803F00C03082B27D0934B9B68C7
:1014340003F00C030C2B59D06368B3F5803F5BD0E9
:10144400B3F5A02F5ED08D4B1A6822F480321A6057
:101454001A6822F480221A606368002B5CD000F0C2
:10146400D3FB0546854B1B6813F4003F14D100F0F1
:10147400CBFB401B6428F5D90320CCE17F4B5B6890
:1014840013F4800FD2D07D4B1B6813F4003F03D0BC
:101494006368002B00F0BA81236813F0020F60D058
:1014A400764B9B6813F00C0F4AD0744B9B6803F087
:1014B4000C03082B3FD0714B9B6803F00C030C2BDF
:1014C40069D0E368002B75D06D4B01221A6000F0DF
:1014D4009BFB0546694B1B6813F0020F61D100F0BA
:1014E40093FB401B0228F5D9032094E1634B5B680E
:1014F40013F4800FA0D0C6E7604A136843F4803326
:101504001360A9E75D4B1A6842F480221A601A68D6
:1015140042F480321A609FE700F076FB0546574B91
:101524001B6813F4003FB7D000F06EFB401B642827
:10153400F5D903206FE1514B5B6813F4800FBAD1E6
:101544004E4B1B6813F0020F03D0E368012B40F0ED
:101554005F814A4A136823F0F803216943EAC1030F
:101564001360236813F0080F49D06369002B33D04C
:10157400434B0122C3F8802E00F046FB05463F4B47
:101584005B6F13F0020F3AD100F03EFB401B0228C0
:10159400F5D903203FE1394B5B6813F4800F90D1F8
:1015A400CEE7364A136823F0F803216943EAC103FE
:1015B4001360D6E7324B00221A6000F025FB054683
:1015C4002E4B1B6813F0020FCBD000F01DFB401B09
:1015D4000228F5D903201EE1294B0022C3F8802EEE
:1015E40000F012FB0546254B5B6F13F0020F06D08B
:1015F40000F00AFB401B0228F5D903200BE1236805
:1016040013F0040F76D01D4B1B6C13F0805F33D1A5
:1016140000230193194B1A6C42F080521A641B6C1C
:1016240003F080530193019B0125164B1B6813F4AF
:10163400807F29D0A368012B3AD0052B3ED00F4BD5
:101644001A6F22F001021A671A6F22F004021A6755
:10165400A368002B3CD000F0D7FA0646074B1B6F5B
:1016640013F0020F45D100F0CFFA801B41F288330A
:101674009842F3D90320CEE00025D6E70038024093
:1016840000004742007000406B4A136843F48073C3
:10169400136000F0B9FA0646674B1B6813F4807FA9
:1016A400C8D100F0B1FA801B0228F5D90320B2E0BA
:1016B400624A136F43F001031367C9E75F4B1A6F64
:1016C40042F004021A671A6F42F001021A67BFE778
:1016D40000F09AFA0646594B1B6F13F0020F08D01C
:1016E40000F092FA801B41F288339842F3D9032028
:1016F40091E0EDB9A369002B00F08C804F4A926809
:1017040002F00C02082A54D0022B17D04C4B0022B2
:101714001A6600F079FA0446484B1B6813F0007F00
:1017240045D000F071FA001B0228F5D9032072E0BD
:10173400424A136C23F080531364DBE7404B0022CE
:101744001A6600F061FA05463C4B1B6813F0007FF3
:1017540006D000F059FA401B0228F5D903205AE0BC
:10176400E369226A1343626A43EA8213A26A520853
:10177400013A43EA0243E26A43EA0263226B43EA20
:1017840002732E4A53602E4B01221A6600F03CFA73
:1017940004462A4B1B6813F0007F06D100F034FA8C
:1017A400001B0228F5D9032035E0002033E0002097
:1017B40031E0012B31D0214B5B6803F48001E269F5
:1017C40091422CD103F03F02216A8A4229D1616AF5
:1017D40047F6C0721A40B2EB811F24D103F44031A2
:1017E400A26A5208013AB1EB024F1ED103F07062B3
:1017F400E16AB2EB016F1AD103F0E043226BB3EB61
:10180400027F16D1002006E001207047012002E08B
:10181400012000E0002002B070BD0120FBE70120A0
:10182400F9E70120F7E70120F5E70120F3E70120BC
:10183400F1E70120EFE700BF0070004000380240EC
:101844000000474200230F2B00F2DE8070B582B007
:1018540060E085685E000324B44025EA0405CC6892
:10186400B4402C438460456825EA02054C68C4F3FF
:1018740000129A402A4342605AE0DC08083450F8C7
:10188400246003F0070295000F22AA4026EA020E04
:101894000A69AA4042EA0E0240F824205CE00622CB
:1018A40000E0002202FA0EF22A430234574D45F8B2
:1018B4002420574A94686FEA0C0224EA0C054E6807
:1018C40016F4801F01D04CEA0405514CA560E4686D
:1018D40002EA04054E6816F4001F01D04CEA040520
:1018E4004B4CE560646802EA04054E6816F4003F58
:1018F40001D04CEA0405464C6560246822404D68DA
:1019040015F4803F01D04CEA0402414C22600133BB
:101914000F2B77D801229A400C6804EA020C32EAB1
:101924000404F4D14C6804F00304013C012C90D964
:101934004A6802F00302032A09D0C4685D00032246
:10194400AA4024EA02048A68AA402243C2604A6880
:1019540002F00302022A90D004684FEA430E0322E5
:1019640002FA0EF224EA02044A6802F0030202FABE
:101974000EF2224302604A6812F4403FC7D00022AC
:101984000192244A546C44F480445464526C02F42A
:1019940080420192019A9C08A51C1C4A52F82550C9
:1019A40003F003024FEA820E0F2202FA0EF225EA36
:1019B4000205194A90423FF474AF02F580629042E6
:1019C40016D002F58062904214D002F580629042F3
:1019D40012D002F58062904210D002F580629042EB
:1019E4000ED002F5806290423FF459AF072259E7C6
:1019F400012257E7022255E7032253E7042251E765
:101A040005224FE702B070BD704700BF00380140A7
:101A1400003C0140003802400000024010B582B092
:101A240000230193194B1A6C42F080521A641B6C08
:101A340003F080530193019B154B01221A6400F0BB
:101A4400E3F80446134B5B6813F4803F08D100F0BD
:101A5400DBF8001BB0F57A7FF4D9032002B010BD87
:101A64000B4B01225A6400F0CFF80446094B5B6823
:101A740013F4003F07D100F0C7F8001BB0F57A7FDC
:101A8400F4D90320EAE70020E8E700BF0038024069
:101A940000000E4200700040074AD36823F4E0635C
:101AA4001B041B0C000200F4E060034343F0BF631B
:101AB40043F40033D360704700ED00E000B5194BE8
:101AC400DB68C3F30223C3F1070CBCF1040F28BF86
:101AD4004FF0040C03F1040EBEF1060F18D9033BBA
:101AE4004FF0FF3E0EFA0CFC21EA0C0199400EFA6D
:101AF40003F322EA0303194300280BDB0901C9B2EB
:101B040000F1604000F5614080F800135DF804FBCB
:101B14000023E5E700F00F000901C9B2024B195494
:101B2400F4E700BF00ED00E014ED00E0002807DB5F
:101B340000F01F02400901239340024A42F820307A
:101B4400704700BF00E100E00138B0F1807F0BD2A4
:101B54004FF0E0235861054AF02182F82310002059
:101B6400986107221A6170470120704700ED00E078
:101B740010B504460E4B18784FF47A73B3FBF0F3A8
:101B84000C4A1068B0FBF3F0FFF7DEFF68B90F2CC6
:101B940001D901200AE0002221464FF0FF30FFF76F
:101BA4008DFF054B1C60002000E0012010BD00BF2C
:101BB40000000020080000200400002008B50B4BA2
:101BC4001A6842F400721A601A6842F480621A6059
:101BD4001A6842F480721A600320FFF75DFF0F2039
:101BE400FFF7C6FFFEF702FF002008BD003C0240DD
:101BF400034A1168034B1B780B441360704700BF02
:101C0400E401002000000020014B1868704700BF69
:101C1400E401002030B4036A026A22F00102026285
:101C24004268846924F073040D682C4323F0020C89
:101C34008B6843EA0C03104DA84203D005F5806578
:101C4400A84205D123F00803CD682B4323F00403F5
:101C5400094DA84203D005F58065A84205D122F4B8
:101C640040724D692A438D692A43426084614A68FF
:101C74004263036230BC70470000014030B4036A21
:101C8400026A22F4807202624268C46924F0730C0E
:101C94000C6844EA0C0523F400738C6843EA0423BB
:101CA400114CA04203D004F58064A04206D123F471
:101CB4000063CC6843EA042323F480630A4CA04203
:101CC40003D004F58064A04207D122F440524C6949
:101CD40042EA04128C6942EA04124260C5614A680D
:101CE400C263036230BC70470000014030B4036A31
:101CF400026A22F4805202624468C26922F4E64213
:101D04000D6842EA052223F400538D6843EA053343
:101D1400094DA84203D005F58065A84204D124F4F6
:101D240080444D6944EA85144460C2614A6802648F
:101D3400036230BC704700BF000001400368324AB0
:101D4400904212D0B0F1804F0FD0A2F57C42904265
:101D54000BD002F58062904207D002F58062904277
:101D640003D002F57842904203D123F070034A680D
:101D74001343254A90422AD0B0F1804F27D0A2F5D0
:101D84007C42904223D002F5806290421FD002F53B
:101D9400806290421BD002F57842904217D002F53F
:101DA4007052904213D002F5806290420FD002F537
:101DB400806290420BD0A2F59832904207D002F58F
:101DC4008062904203D002F58062904203D123F4F2
:101DD4004073CA68134323F080034A6913438A6833
:101DE400C2620A688262084A904203D002F58062A5
:101DF400904201D10A690263026842F0040202605F
:101E040001224261036070470000014040B310B5F5
:101E1400044690F83D30F3B1022384F83D30214666
:101E240051F8040BFFF78AFF012384F8463084F845
:101E34003E3084F83F3084F8403084F8413084F8F0
:101E4400423084F8433084F8443084F8453084F8D0
:101E54003D30002010BD80F83C30FEF785FEDBE706
:101E64000120704730B4036A026A22F01002026251
:101E74004468826922F4E6420D6842EA052223F0AE
:101E840020038D6843EA0513114DA84203D005F5DC
:101E94008065A84206D123F08003CD6843EA051388
:101EA40023F040030A4DA84203D005F58065A842FB
:101EB40007D124F440644D6944EA85048D6944EAF9
:101EC4008504446082614A688263036230BC70475F
:101ED4000000014038B590F83C30012B66D0044630
:101EE4000D46012380F83C300C2A5AD8DFE802F072
:101EF400075959591B5959593059595944000068BF
:101F0400FFF788FE2268936943F00803936122680F
:101F1400936923F0040393612268936929690B434D
:101F2400936100203EE00068FFF79CFF22689369FC
:101F340043F4006393612268936923F4806393619B
:101F440022689369296943EA01239361002029E007
:101F54000068FFF793FE2268D36943F00803D36156
:101F64002268D36923F00403D3612268D369296901
:101F74000B43D361002015E00068FFF7B7FE226829
:101F8400D36943F40063D3612268D36923F4806383
:101F9400D3612268D369296943EA0123D36100200C
:101FA40000E00120002384F83C3038BD0220FCE727
:101FB40090F83C30012B3DD010B4012380F83C3024
:101FC400022380F83D3003685A689C6822F0700C44
:101FD4000A6842EA0C025A600368174A93421AD00C
:101FE400B3F1804F17D0A2F57C42934213D002F58F
:101FF400806293420FD002F5806293420BD002F5C7
:102004007842934207D002F57052934203D0A2F56E
:102014009432934204D124F080044A6814439C60AF
:10202400012380F83D30002380F83C3018465DF8E9
:10203400044B7047022070470000014090F83C3088
:10204400012B22D0012380F83C30CB6823F4407369
:102054008A68134323F480634A68134323F40063B8
:102064000A68134323F480530A69134323F4005387
:102074004A69134323F48043CA69134302685364CF
:10208400002380F83C301846704702207047000057
:1020940038B504460268136923F44053C1680B43FE
:1020A400136183680269134342691343C2691A4383
:1020B4000168CB6823F4164323F00C031343CB606D
:1020C4000268536923F4407381690B4353610368C5
:1020D400314A934206D002F58062934202D0FFF760
:1020E400DFF801E0FFF7ECF8E369B3F5004F29D01E
:1020F4000021031849411B1841F10001C90041EABC
:102104005371DB00181863684FEA83024FEA937334
:1021140041F10001FEF70EF9204DA5FB00325109F3
:10212400642303FB11031B013233A5FB03235B0967
:1021340003F0F00202EB011203F00F0321681344D1
:102144008B6038BD0023021843EB0301121841F1E0
:102154000001C90041EA5271D200101841F1000196
:10216400626892185B41FEF7E5F80C4DA5FB00325E
:102174005109642303FB1103DB003233A5FB032362
:102184005B095A0002F4F87202EB011203F0070330
:10219400216813448B60D4E7001001401F85EB5184
:1021A40060B310B5044690F8413013B3242384F887
:1021B40041302268D36823F40053D3602046FFF7EC
:1021C40067FF2268136923F49043136122685369FB
:1021D40023F02A0353612268D36843F40053D36085
:1021E40000206064202384F8413084F84230606326
:1021F40010BD80F84030FEF7FDFCD7E701207047A2
:10220400034AD2F8883043F47003C2F88830704728
:1022140000ED00E0DFF834D0FFF7F2FF0C480D4981
:102224000D4A002302E0D458C4500433C4188C422D
:10223400F9D30A4A0A4C002301E013600432A24293
:10224400FBD3FEF701F8FEF78FFB70470000022076
:10225400000000200C000020AC2200080C0000202C
:10226400E8010020FEE70000F8B500BFF8BC08BC98
:102274009E467047F8B500BFF8BC08BC9E46704740
:102284000000000000000000010203040607080922
:08229400000000000102030438
:08229C00CCE0FF7F010000000F
:0422A4002D020008FF
:0422A8000502000823
:0C22AC0001000000100000000024F400FD
:0400000508002219B4
:00000001FF
